:020000040800F2
:1000000008050020D5000008E90F0008350D00089C
:1000100000000000000000000000000000000000E0
:10002000000000000000000000000000DD100008DB
:100030000000000000000000EB0F0008DF100008C7
:10004000E7000008E7000008E7000008E7000008F4
:10005000E7000008E7000008E7000008E7000008E4
:1000600000000000E7000008E7000008E7000008C3
:10007000E7000008E7000008E7000008E7000008C4
:10008000E7000008E7000008E70000084111000849
:1000900000000000A1120008E7000008E7000008C7
:1000A000E7000008E7000008E7000008E700000894
:1000B000E7000008E7000008000000000000000062
:1000C0000348854600F03CF8004800476D150008DD
:1000D000080500200448804704480047FEE7FEE783
:1000E000FEE7FEE7FEE7FEE731110008C100000869
:1000F00030B50B46014600202022012409E00D46C0
:10010000D5409D4205D31D469540491B2546954047
:1001100040191546521E002DF1DC30BDD2B201E06F
:100120000270401C491EFBD270470022F6E710B552
:1001300013460A4604461946FFF7F0FF204610BD55
:10014000064C0125064E05E0E36807CC2B430C3C2A
:1001500098471034B442F7D3FFF7B6FF24160008CF
:10016000441600087047000070B5044600F0C8F857
:100170000546601C02D004480078241800F0C0F83E
:10018000401BA042FAD370BD18000020FCB500232C
:1001900001259AE022462C469C4022406FD04E68B2
:1001A000012E05D0022E03D0112E01D0122E16D111
:1001B00086680327B4465E00B646B7406646BE432F
:1001C000B446CF687646B740664637438760466890
:1001D000A6430C79E406E40F9C4034434460C668AF
:1001E0005F000324BC40A446A6438C68BC40344353
:1001F000C4604C68022C01D0122C14D1DC08A4007D
:1002000024180194266A5C07B646E60E0F24B44013
:1002100000967646A643B6460C69009EB4407646E4
:100220002643019C266204686646B4430E79B607ED
:10023000B60FBE40264306604C68E40044D59E08D5
:10024000254CB6003419A446246E9E07F60E0F27DF
:10025000B740BC4305273F07B84201D1002710E053
:100260001E4FB84201D101270BE01D4FB84201D10A
:10027000022706E01B4FB84202D1032701E023E02A
:100280000527B740274364462766134E80363468F7
:100290004F689443FF0300D51443346074684F687B
:1002A0009443BF0300D5144374600B4C26684F6819
:1002B0009643FF0200D51643266066684F68964352
:1002C000BF0200D5164366605B1C0A681446DA401C
:1002D00000D05FE7FCBD00000018024000040050A1
:1002E00000080050000C00500069084000D00120B8
:1002F0007047002A01D08161704781627047000019
:1003000001488068704700001800002070B50400A4
:100310000FD021681348086021681348086003CC97
:1003200041602068083C21688860FFF7E9FF0546C6
:1003300008E0012070BDFFF7E3FF401B302801D922
:10034000032070BD2068C0680028F4D120680269CD
:10035000E1688A4201D0016101E0044901600020A6
:1003600070BD0000CCCC000055550000AAAA0000CA
:10037000006802490160002070470000AAAA00003E
:10038000024881680278891881607047180000204F
:1003900010B5084800240168821511430160204609
:1003A00000F00AF8002801D0012401E000F028F84C
:1003B000204610BD0020024070B50F4E0024317859
:1003C0000546002915D07D20C000FFF791FE0146AB
:1003D0000A480068FFF78CFE00F048FB002808D1AF
:1003E000042D06D200222946401E00F02BF875602D
:1003F00000E00124204670BD1800002024000020E9
:1004000008B50948016801221143016000681040E5
:10041000009005484038C26B01040A43C263C06BB8
:100420000840009008BD000040100240002805DB95
:10043000C106C90E012088400149086070470000CC
:1004400000E100E010B501F05FF810BD10B50F4CF1
:10045000216803225202914301432160C11FFF39E9
:10046000FA390ED10A480621006848430949FFF7C6
:100470003FFE401C02E0002805D0401E616949058E
:10048000F9D4002010BD032010BD00000070004012
:100490002400002040420F00F8B50F46060043D06C
:1004A0004D4D28684007400FB84213D22868C00855
:1004B000C00038432860FFF723FF044605E0FFF73C
:1004C0001FFF011B4548814261D828684007400F43
:1004D000B842F4D13068424C81070DD5400704D5AD
:1004E000A068072109030843A060A0680F21090242
:1004F0008843B1680843A0603078C00732D0706884
:1005000001280AD002280BD000280FD034494031EE
:1005100003280ED0C969890704E02168890301E036
:1005200021688901002906DB0120F8BD2168490501
:10053000F8E7096AEFE7A168C908C9000143A160AB
:10054000FFF7DEFE009006E0FFF7DAFE0099411AA1
:10055000224881421BD8A068382108407168C90030
:100560008842F1D128684007400FB84217D91A488D
:100570000168C908C90039430160FFF7C1FE05469B
:1005800007E0FFF7BDFE411B1448814201D903205B
:10059000F8BD114800684007400FB842F1D13078EB
:1005A000400706D5A068072109038843F16808437E
:1005B000A06000F01DF8A1683C2289091140094A99
:1005C000515CC906C90EC840074908600748006861
:1005D000FFF7F2FEF8BD0000002002408813000083
:1005E00000100240E4150008240000201C00002038
:1005F00010B5204CA068204A8006400F16D0A06895
:100600008006410F501001290FD0A1688906490FBB
:10061000022912D0A0688006400F042823D0A068C9
:100620008006400F032821D0002010BD2068012142
:100630008004400F8140104612E0E1688B07E168BA
:100640009B0F4906490F491C032B00D01046FFF7AA
:100650004FFDE1684904490E4843E168490F491CD0
:10066000FFF746FD10BD0120C00310BD7D20000234
:1006700010BD0000001002400024F400F8B5040092
:100680007ED020783827C007EF4D002846D0A868D4
:10069000E96838408907890F102802D008280BD054
:1006A00001E0032908D001206268000482420AD1D7
:1006B00029680143296015E0286880032ED5606809
:1006C0000028DDD02AE0052301211B0489049A4279
:1006D0002A6802D10A432A60EAE782432A6028682E
:1006E00088432860606800280CD0FFF709FE0646A2
:1006F00004E0FFF705FE801B642873D82868800398
:10070000F7D50BE0FFF7FCFD064604E0FFF7F8FD28
:10071000801B6428F1D828688003F7D420788007EC
:1007200069D5A868E96838408A070721920FC9028D
:10073000102802D0002813D001E0022A10D0E0686F
:10074000002846D028688843216908432860286823
:10075000FF21013108432860FFF7D2FD06462CE057
:100760002A68520502D5E268002A89D06A687F2388
:100770001B029A4363691B021A436A60002800E067
:100780008DE00ED1286888432169084328602868D5
:1007900001218004400F8140AC48FFF7A9FCAC491F
:1007A0000860AC480068FFF707FE002877D122E018
:1007B000FFF7A6FD801B02289FD828684005F7D5C3
:1007C00068687F21090288436169090208436860FB
:1007D00011E02968FF20013081432960FFF790FD77
:1007E000064605E098E0FFF78BFD801B022884D8C1
:1007F00028684005F7D42078974E00072ED5A868C2
:100800008006400F03280AD0A0690028306A16D05D
:10081000012108433062FFF773FD07460BE0306AA1
:1008200080071BD5A06900289FD017E0FFF768FD5F
:10083000C01B022870D8306A8007F7D50EE0400848
:1008400040003062FFF75CFD074604E0FFF758FD0B
:10085000C01B022860D8306A8007F7D42078400790
:100860006CD5A86800278006400F042818D0E86BD4
:10087000C00008D4E96B012000070143E963E96B7C
:1008800001400127009175480168C90519D4016824
:10089000821511430160FFF733FD00900DE083E006
:1008A000F06980074AD5A06800287DD046E0FFF7B0
:1008B00027FD0099401A02282ED868480068C00514
:1008C000F5D5A168012910D004200529F16911D0BE
:1008D00049084900F161F1698143F161A06800288C
:1008E00016D0FFF70DFD00900EE0F06901210843DE
:1008F000F061F3E70143F161F7E7FFF701FD0099CC
:10090000411A574881426FD8F0698007F5D50EE04B
:10091000FFF7F6FC009007E066E0FFF7F1FC0099B6
:10092000411A4F4881425FD8F0698007F5D4002F03
:1009300004D0E86B012109078843E863E0690028D7
:100940007FD0A9688906490F022953D001263606AF
:10095000022828680DD0B0432860E868800880002D
:10096000E860E8683F490840E860FFF7C9FC0446D2
:100970003CE0B0432860FFF7C3FC074604E0FFF704
:10098000BFFCC01B02282FD828688001F7D4616AF9
:10099000206AA26A0843E16A120211430843216BEC
:1009A0000843616B084300E049E0E9682E4A1140C2
:1009B0000843E860286830432860E8680121090797
:1009C0000843E860FFF79CFC044604E0FFF798FC4E
:1009D000001B022808D828688001F7D531E0FFF70E
:1009E0008FFC001B022801D90320F8BD2868800174
:1009F000F5D426E00128F8D0E868226A8107890F3B
:100A000091421CD17021626A0140914217D17F212D
:100A1000A26A090201401202914210D11F21490429
:100A2000E26A014091420AD107214906226B014046
:100A3000914204D1400F616B4007884201D00120F0
:100A4000F8BD0020F8BD0000001002400024F400B2
:100A5000240000201C0000204010024000700040D4
:100A600088130000FFFFFEEE8C80C111094910B50C
:100A7000401E884201D9012010BD074C606103214E
:100A8000081F00F041FD0020A06107202061002028
:100A900010BD0000FFFFFF0000E000E0704770475E
:100AA000704770B5040005D025462035687F0028C2
:100AB00002D006E0012070BD00202877204600F01B
:100AC00017F802206877211D206800F019FC012228
:100AD00040342272AA77EA7722706270A270E270C4
:100AE00022716271A271E2716A77002070BD00000C
:100AF00008B5134A0168134891420DD10268C91321
:100B00000A4302600068002208400090114613204A
:100B1000FFF798FC132010E00B4A91420FD10268B6
:100B2000012149040A430260006800220840009045
:100B300011461520FFF786FC1520FFF777FC08BD4E
:100B40000020004040100240004401400146203196
:100B50004A7F012A01D00120704702224A770168AA
:100B6000CB6801221343CB6000680B49884205D053
:100B70009107884202D00949884207D18168084B11
:100B80001940062905D0DB1F994202D001681143A4
:100B90000160002070470000002C0140000400406C
:100BA000070001007047000070B504460068016945
:100BB0000025C9438907002915DBC168C943890796
:100BC00011D4E91E01610120207720688069800727
:100BD000204602D0FFF7E6FF04E000F0A7F8204629
:100BE00000F0A5F8257720680169C943490717D4A3
:100BF000C168C943490713D40421C94301610220D4
:100C00002077206880698005800F204602D0FFF79A
:100C1000C9FF04E000F08AF8204600F088F8257744
:100C200020680169C943090716D4C168C943090787
:100C300012D40821C9430161042020772068C069CB
:100C40008007204602D0FFF7ADFF04E000F06EF809
:100C5000204600F06CF8257720680169C943C90671
:100C600017D4C168C943C90613D41021C94301610F
:100C7000082020772068C0698005800F204602D0B8
:100C8000FFF790FF04E000F051F8204600F04FF825
:100C9000257720680169C943C90708D1C168C943DC
:100CA000C90704D1891E0161204600F041F820687F
:100CB0000169C943090609D4C168C943090605D4B5
:100CC0008021C94301612046FFF7E9FE20680169E0
:100CD000C943C90508D4C168C943090604D41249E7
:100CE00001612046FFF7DAFE20680169C943490621
:100CF00009D4C168C943490605D44021C9430161EB
:100D0000204600F016F820680169C943890609D415
:100D1000C168C943890605D42021C9430161204621
:100D2000FFF7BEFE70BD0000FFFEFFFF704770477B
:100D300070477047FEE70000F8B540214148FFF7D3
:100D4000D3FA414C0126274620370025002808D039
:100D5000A07B002805D1607F002802D1A07F002859
:100D600006D040213748FFF7BFFA00280DD01AE01F
:100D7000E07F002807D13548E67704210170344828
:100D800005703448057025760DE0E07F00280AD014
:100D90003878002800D126762C48E57705702C4855
:100DA00005702C48057001210520C9030007FFF7D5
:100DB0009BFA29490028086808D0401F37281FD807
:100DC000A07B022805D0002816D019E0401C08603E
:100DD00017E02676A67366761C48A67605701C4832
:100DE00005701C480570607F022800D16677A07FDF
:100DF000022805D1A67703E03878002800D13E709C
:100E00000D6080210F48FFF76FFA002804D0A07B07
:100E1000032814D1022013E0A17B032002290FD262
:100E2000A073E5770948257606210170084805700A
:100E3000084805706576A5763D70A5626562F8BDC7
:100E4000A073F8BD00040050C00000201100002075
:100E500010000020040000200C00002010B50748FE
:100E60000121027E0520C9020007002A01D00022CC
:100E700000E00122FFF73DFA10BD0000C000002095
:100E8000F0B587B014216846FFF74FF92C48416B45
:100E9000012529434163416B29400591426B04219F
:100EA0000A434263426B0A400592426B02210A43A5
:100EB0004263406B052708403F07059000223846F3
:100EC000FFF717FA01221F493846FFF712FA0122ED
:100ED00040211D48FFF70DFA2E02002231461B4823
:100EE000FFF707FA17480024801C00900294694617
:100EF000019503943846FFF749F940200090029489
:100F00006946019503941048FFF740F9E803009003
:100F10000194694602943846FFF738F9F0200090B2
:100F20000194694602940948FFF730F90294694632
:100F30000648009601950394FFF728F907B0F0BD25
:100F4000001002400C18000000080050000400507F
:100F500010B5094807490160022141600749C16095
:100F60007D2109018160FFF7D1F9002801D0FFF749
:100F7000F9F810BD00300040F4000020FF0F000021
:100F800010B50A480849016000220F2182604160C3
:100F900007490261C16080218161FFF782FD00285D
:100FA00001D0FFF7DFF810BD00200040280000202E
:100FB0000F27000010B50B48094901600F2141605F
:100FC00000218160B8220161C2604161802181619C
:100FD000FFF767FD002801D0FFF7C4F810BD00003F
:100FE0000044014074000020FEE77047F8B5384C1B
:100FF00039492278052500272D07364E887B002A9F
:1010000021D003281ED1012A1CD140213046FFF7F0
:1010100070F90A20FFF7A8F8002240213046FFF7B8
:1010200068F96420FFF7A0F8012204212846FFF7A1
:1010300060F90A20FFF798F8002204212846FFF7FC
:1010400058F92770F8BD002823D00128FAD10122D1
:1010500004212846FFF74DF90A20FFF785F8002202
:1010600004212846FFF745F96420FFF77DF80122A7
:1010700040213046FFF73DF90A20FFF775F80022BE
:1010800040213046FFF735F913488773012020705F
:10109000F8BD012204212846FFF72BF90A20FFF7AB
:1010A00063F8002204212846FFF723F96420FFF7A4
:1010B0005BF8012240213046FFF71BF90A20FFF7B9
:1010C00053F8002240213046FFF713F9DEE7000015
:1010D0001400002000080050C0000020704710B528
:1010E000FFF74EF910BD10B592B038216846FFF7F2
:1010F0001CF8002401200E940F94109440021194C7
:10110000FFF7A4F902200090C00103904020059051
:10111000049407946846FFF7B1FA07200E900F94E5
:101120001094002111940EA8FFF7B6F912B010BD6B
:1011300001200249C00688607047000000ED00E011
:10114000F8B54D48FFF730FDFFF7F6FD4B4C4C4925
:10115000206B2646401C20360025206388420DD394
:10116000484901200870617E012902D0A17E012931
:1011700003D1A17B002900D130702563606A424F02
:10118000002822D0401C606220213846FFF7ACF8CE
:10119000002804D1E07E012801D10220E076102150
:1011A0003846FFF7A1F8002804D1207F012801D19B
:1011B00002202077FF21606AF631884205D30320A0
:1011C00065623070481EA06202E0A06A00281AD052
:1011D000401EA06220213846FFF786F8002803D081
:1011E000E07E022800D1E57610213846FFF77CF832
:1011F000002803D0207F022800D12577A06A00288C
:1012000001D1042030702148FF230268F533521CBD
:101210001F4E204902609A4217D305600A7833783E
:101220009A4212D1A27B012A0DD8E27F002A0AD16C
:10123000627F022A02D0A27F022A06D1E26A521CF1
:10124000E262022A01D10D70E562134A13685B1C49
:101250001360142B0CD315600A7834780F4BA2421C
:1012600007D2521C0A701A78012191431970056047
:10127000F8BD1D70F8BD000028000020C00000204F
:10128000002E9302130000200004005000000020F4
:1012900011000020100000200800002004000020A1
:1012A00010B51248FFF780FC1148124C0078012855
:1012B00016D000202070C2B2FF2101310E48FFF786
:1012C00018F80E480078002809D1207800280AD0A4
:1012D00000220121052009030007FFF70AF810BDCD
:1012E0002078C043E6E70122F3E700007400002005
:1012F000040000201200002000040050E000002044
:10130000F0B502681A4B0124A4071A4D984203D085
:10131000A04201D0A84203D17026B2434E683243A6
:10132000154E164F98420AD0A04208D0A84206D0C7
:10133000134CA04203D0B04201D0B84204D10324E0
:101340002402A243CC6822438024A2434C69224356
:1013500002608A68C2620A688262984203D0B04220
:1013600001D0B84201D10969016301214161F0BD99
:10137000002C0140000400400044014000480140AE
:101380000020004030B50E48437F01468A7F012B84
:1013900001D0012A12D1817B00290FD10176094D9C
:1013A000C1770C242C70084C2170084C217002214C
:1013B000012B00D14177012A00D1817730BD000097
:1013C000C0000020110000201000002004000020B8
:1013D000F8B5394F012639783C46203C00250129D3
:1013E0000AD02046807B03293AD0042935D1E17EFA
:1013F00000293AD0667739E020213048FEF774FFA3
:10140000002802D0E676657604E0607F022801D2EB
:10141000E576657710212948FEF766FF002802D09F
:101420002677A57604E0A07F022801D22577A5774C
:10143000E07E002802D1207F00280FD020480078CD
:10144000012807D001210520257600220903000785
:10145000FEF74FFF022038706662F8BD3D70F8BDA0
:101460000028FCD16676A676F8BD6577217F002935
:1014700001D0A67700E0A577617F0029EED1A17F9A
:101480000029EBD10028E9D10D4C2078012808D0A3
:101490000122052011030007FEF72BFF0648203824
:1014A00006760848257001780C29D7D105700648C2
:1014B000057006480570D1E7E000002000040050E8
:1014C0001300002011000020100000200400002064
:1014D00070B50C4C0525607E2D0701280DD000222B
:1014E00002212846FEF705FFA07E012807D0002232
:1014F00008212846FEF7FDFE70BD0122F0E701221B
:10150000F6E70000C00000208307FF22DB0E9A40B0
:101510008907090E9940002808DB830809489B00C9
:101520001B18186890430843186070470007000FA5
:101530000838830804489B001B18D8699043084367
:10154000D861704700E400E000ED00E002E008C868
:10155000121F08C1002AFAD170477047002001E02D
:1015600001C1121F002AFBD170470000FEF710FFD7
:10157000FFF7B9FDFF202D30FEF7F6FDFFF780FCE9
:10158000FFF7E6FCFFF7FCFCFFF714FD1048FFF740
:10159000DDFA1048FFF7DAFA0F4901208A7B032AA7
:1015A00003D048768876087604E00C4A1070002054
:1015B000487688760A48FEF7DBFEFFF789FFFFF7DB
:1015C00015FDFFF705FFFFF7DDFEFFF747FCF1E72D
:1015D0002800002074000020C0000020140000201B
:1015E000F4000020000000000000000000000000E7
:1015F00000000000000000000000000000000000EB
:1016000000000000010000000200000003000000D4
:1016100004000000060000000700000008000000B1
:101620000900000044160008000000202800000007
:101630004C1500086C16000828000020E00400008B
:101640005C15000800000000000000000000000021
:101650000000000000000000000000000100000089
:0C16600004000000000000000024F40062
:04000005080000C12E
:00000001FF
